{
    "contractName": "Lottery",
    "abi": [
        {
            "inputs": [],
            "stateMutability": "nonpayable",
            "type": "constructor"
        },
        {
            "inputs": [],
            "name": "OWNER",
            "outputs": [
                {
                    "internalType": "address",
                    "name": "",
                    "type": "address"
                }
            ],
            "stateMutability": "view",
            "type": "function",
            "constant": true
        },
        {
            "inputs": [
                {
                    "internalType": "uint256",
                    "name": "",
                    "type": "uint256"
                }
            ],
            "name": "players",
            "outputs": [
                {
                    "internalType": "address",
                    "name": "",
                    "type": "address"
                }
            ],
            "stateMutability": "view",
            "type": "function",
            "constant": true
        },
        {
            "inputs": [],
            "name": "enter",
            "outputs": [],
            "stateMutability": "payable",
            "type": "function",
            "payable": true
        },
        {
            "inputs": [],
            "name": "pickWinner",
            "outputs": [
                {
                    "internalType": "address payable",
                    "name": "",
                    "type": "address"
                }
            ],
            "stateMutability": "nonpayable",
            "type": "function"
        },
        {
            "inputs": [],
            "name": "getPlayers",
            "outputs": [
                {
                    "internalType": "address[]",
                    "name": "",
                    "type": "address[]"
                }
            ],
            "stateMutability": "view",
            "type": "function",
            "constant": true
        }
    ],
    "bytecode": "0x60a060405234801561001057600080fd5b5033606081901b6080526105566100386000396000818160dd015261010301526105566000f3fe60806040526004361061004a5760003560e01c8063117803e31461004f5780635d495aea1461007a5780638b5b9ccc1461008f578063e97dcb62146100b1578063f71d96cb146100bb575b600080fd5b34801561005b57600080fd5b506100646100db565b6040516100719190610411565b60405180910390f35b34801561008657600080fd5b506100646100ff565b34801561009b57600080fd5b506100a4610200565b6040516100719190610425565b6100b9610262565b005b3480156100c757600080fd5b506100646100d63660046103a8565b6102ca565b7f000000000000000000000000000000000000000000000000000000000000000081565b60007f00000000000000000000000000000000000000000000000000000000000000006001600160a01b031633146101525760405162461bcd60e51b8152600401610149906104b8565b60405180910390fd5b6000805481906101606102f4565b61016a9190610500565b8154811061018857634e487b7160e01b600052603260045260246000fd5b60009182526020822001546040516001600160a01b03909116925082914780156108fc02929091818181858888f193505050501580156101cc573d6000803e3d6000fd5b50604080516000808252602082019283905290516101ea929061032e565b50600180546101f8916104dc565b600155905090565b6060600080548060200260200160405190810160405280929190818152602001828054801561025857602002820191906000526020600020905b81546001600160a01b0316815260019091019060200180831161023a575b5050505050905090565b3467016345785d8a0000146102895760405162461bcd60e51b815260040161014990610472565b600080546001810182559080527f290decd9548b62a8d60345a988386fc84ba6bc95484008f6362f93160ef3e5630180546001600160a01b03191633179055565b600081815481106102da57600080fd5b6000918252602090912001546001600160a01b0316905081565b60004244600060015460405160200161031094939291906103c0565b6040516020818303038152906040528051906020012060001c905090565b828054828255906000526020600020908101928215610383579160200282015b8281111561038357825182546001600160a01b0319166001600160a01b0390911617825560209092019160019091019061034e565b5061038f929150610393565b5090565b5b8082111561038f5760008155600101610394565b6000602082840312156103b9578081fd5b5035919050565b600085825260208581840152604083018554868452828420845b828110156103ff5781546001600160a01b0316845292840192600191820191016103da565b50505093845290920195945050505050565b6001600160a01b0391909116815260200190565b6020808252825182820181905260009190848201906040850190845b818110156104665783516001600160a01b031683529284019291840191600101610441565b50909695505050505050565b60208082526026908201527f496e76616c696420616d6f756e742e20506c656173652c2073656e6420302e316040820152651022ba3432b960d11b606082015260800190565b6020808252600a908201526927b7363c9027bbb732b960b11b604082015260600190565b600082198211156104fb57634e487b7160e01b81526011600452602481fd5b500190565b60008261051b57634e487b7160e01b81526012600452602481fd5b50069056fea264697066735822122067c928e5776421bb50c5b2b4ca4a9dbc4d9d85e067be910772270c372f5f148f64736f6c63430008010033",
    "immutableReferences": {
        "49": [
            {
                "length": 32,
                "start": 221
            },
            {
                "length": 32,
                "start": 259
            }
        ]
    },
    "source": "// SPDX-License-Identifier: MIT\npragma solidity ^0.8.1;\n\n/// @title Lottary Smart Contract\n/// @author Julian Boetto\n\ncontract Lottery {\n    address public immutable OWNER;\n    address[] public players;\n    uint256 private counter;\n\n    constructor() {\n        OWNER = msg.sender;\n    }\n\n    function enter() public payable {\n        require(\n            msg.value == 0.1 ether,\n            \"Invalid amount. Please, send 0.1 Ether\"\n        );\n\n        players.push(msg.sender);\n    }\n\n    function random() private view returns (uint256) {\n        return\n            uint256(\n                keccak256(\n                    abi.encodePacked(\n                        block.timestamp,\n                        block.difficulty,\n                        players,\n                        counter\n                    )\n                )\n            );\n    }\n\n    function pickWinner() public onlyOwner returns (address payable) {\n        address payable winner = payable(players[random() % players.length]);\n\n        winner.transfer(address(this).balance);\n\n        players = new address[](0);\n\n        counter = counter + 1;\n\n        return winner;\n    }\n\n    function getPlayers() public view returns (address[] memory) {\n        return players;\n    }\n\n    modifier onlyOwner() {\n        require(OWNER == msg.sender, \"Only Owner\");\n        _;\n    }\n}\n",
    "sourcePath": "/home/julian/Julian/Solidity/Loteria/contracts/Lottery.sol",
    "compiler": {
        "name": "solc",
        "version": "0.8.1+commit.df193b15.Emscripten.clang"
    },
    "schemaVersion": "3.4.9",
    "updatedAt": "2022-09-01T12:34:31.391Z",
    "networkType": "ethereum",
    "devdoc": {
        "author": "Julian Boetto",
        "kind": "dev",
        "methods": {},
        "title": "Lottary Smart Contract",
        "version": 1
    },
    "userdoc": {
        "kind": "user",
        "methods": {},
        "version": 1
    }
}